:1000000009308A005329000020105A1020102010B7
:10001000201020102010201000002010DA222010C4
:100020002010201020102010201000012010DA22B3
:100030004C10201020102010201020100001201043
:10004000DA22CC22201020102010201020100001D5
:100050002010DA22CC224310201020102010201073
:1000600000012010DA22CC22432A20102010201078
:10007000201000012010DA22CC22432A5210201036
:100080002010201000012010DA22CC22432AD2278F
:1000900020102010201000012010DA22CC22432A48
:1000A000D2274E102010201000012010DA22CC227E
:1000B000432AD2274E104310201000012010DA22CC
:1000C000CC22432AD2274E10C320201000010A2A36
:1000D0004D28A0123019641D251832322010A012AC
:1000E0003117313341000A2A4D28A012301964100B
:1000F000251832322010A012311731334100452C1F
:10010000C322D3272010D327CC2AC3244F27000192
:100110000A1020102010A012311731334110201086
:10012000201020002A102023CF27D429C827D72227
:100130005210201500010A1020102010A0123117B3
:10014000313341102010201020005029CF21C52923
:100150004F10C422D422CE24C42700002023CF274E
:10016000D429C827D7225210A0274E100001202DD5
:100170004128D022521020102010A0274E1000013C
:10018000202D4128D0225210201020104F2346103D
:1001900000010C10C6244E10C422202A45294128F3
:1001A000C92020007C308400831300080319E6284E
:1001B0000130F800F701F70BDB28F80BDA284A309A
:1001C000F700F70BE128E428800BD82808008316F5
:1001D000240EF039F7000F308312060577048600ED
:1001E0000000861583168611F52883128611831662
:1001F0008611831208000608F700060E0F39F80072
:100200000800831686118610061183128610831645
:1002100086100F300605F038860083120615831607
:1002200006110000831286158316861100008312C2
:10023000FB2078088316A40083128611831686118A
:100240000000831286158316861100008312FB209E
:1002500078088316A30083128611831686110F3047
:1002600006058600240EF700F030F7057708230412
:10027000F8007808A300A31B0929A108031D44293D
:1002800083128610462983168312861483168610DD
:1002900000008312061183160611000083128611D6
:1002A00083168611220EA3000F30A3052308A40095
:1002B0008312E720831622080F39A300A4008312BB
:1002C000E72008002830E9000C30EA000130EB009C
:1002D0000630EC0086118316861183128610831671
:1002E000861083120611831606110F30060586004C
:1002F0008611861006110F30FC008312D2200130C7
:10030000E8006808033C031C8F2903308316A4000F
:100310008312E7200530FC00D220E80A8129023050
:100320008316A4008312E7200530FC00D220E801E8
:100330006808033C031CAC296930680784008313F8
:100340000008ED008316A10183126D088316A20038
:1003500083120121E80A98298A150A12DB297D0BEC
:10036000B229B5294030FE00B629FE0101307C02D9
:10037000FE077E0880388316A000A1012008A20095
:100380008312012108007B08073A0319D1290B3A8F
:100390000319D629063A0319E029023A0319E62976
:1003A000ED290130FC00FD00AF21F4298316A101E5
:1003B0000130A200831201210230FC00D220F42976
:1003C0000130FC000230FD00AF21F4298316A101A9
:1003D0001030A20083120121F42901308316A100FC
:1003E0007B08A2008312012108000B08E8008B1390
:1003F000831603178C170C140000000083120313DC
:10040000E81B8B1703170C087F390319492A0313BC
:10041000E80003170D080313E90003170F0803137F
:10042000EA006808FB00C321690803178D00031365
:100430006A0803178F0003130B08EB008B13831656
:1004400003178C170C140000000083120313EB1B1E
:100450008B1703170C0D0E0D7F390319492A03134F
:10046000E80003170D080313E90003170F0803132F
:10047000EA006808FB00C321690803178D00031315
:100480006A0803178F008D0A03198F0A0313F529D1
:10049000031703130800FA30FC00D2200130FC00DF
:1004A000FD00AF21043003178D0000308F000313CF
:1004B000F5216430FC00D2200130FC00FD00AF21AA
:1004C0000D3003178D0000308F000313F5216430C9
:1004D000FC00D2200130FC00FD00AF2116300317D4
:1004E0008D0000308F000313F5216430FC00D22012
:1004F0000130FC00FD00AF211F3003178D000030DC
:100500008F000313F5216430FC00D2200130FC0081
:10051000FD00AF21283003178D0000308F0003133A
:10052000F5216430FC00D2200130FC00FD00AF2139
:10053000313003178D0000308F000313F521643034
:10054000FC00D2200130FC00FD00AF213A3003173F
:100550008D0000308F000313F5216430FC00D220A1
:100560000130FC00FD00AF21433003178D00003047
:100570008F000313F5216430FC00D2200130FC0011
:10058000FD00AF214C3003178D0000308F000313A6
:10059000F5216430FC00D2200130FC00FD00AF21C9
:1005A000553003178D0000308F000313F5216430A0
:1005B000FC00D2200130FC00FD00AF215E300317AB
:1005C0008D0000308F000313F5210430E800FA306D
:1005D000FC00D220E80BE72A0C30FB00C3218A156F
:1005E0000A12062A7B080319712B8316A40020081F
:1005F000031DFC2A8312712BA40703180A2B7F30DA
:10060000A4020318052B8312712B031D092B8312DF
:10061000712B102B8130A407031C102B8312712B1C
:100620002408F700F801F901FA017C08A800A817CE
:100630007D08A7007E08A6001830A400A501261C8E
:10064000392B2308FA07031C2B2BF90A031D2B2B2C
:10065000F80A0319A5172208F907031C322BF80A18
:100660000319A5172108FD00FD177D08F8070318D9
:10067000A517A50DF80CF90CFA0CA80CA70CA60CE4
:100680000310A40B1E2B0130F707031C492B831208
:10069000712BF81B532BA80DFA0DF90DF80DF70B64
:1006A000532B8312712BA81F662BFA0A031D662B8E
:1006B000F90A031D662BF80A031D662BF80CF90CCA
:1006C000FA0CF70A031D662B8312712B7C08A50018
:1006D0002108A506A51F6E2BF817762BF813762B8D
:1006E0008312F701F801F901FA0183168312080059
:1006F0001F151F19792B83161E088312E1001E088F
:10070000E2006208E9006108E8008E30F70069083D
:10071000F8006808F900FA01F808031D992B790818
:10072000F800F9010830F702F808031D992BF701CA
:10073000A12B0310F81BA02BF90DF80DF703992B33
:10074000F813FE01FD012030FC008130FB007A0827
:100750008316A3007908A2007808A1007708A000FA
:100760008312F2227A08EB007908EA007808E9009F
:100770007708E8006B08EF006A08EE006908ED00F2
:100780006808EC00F301F201F1018930F0006C0817
:100790000319A12C8316A4007008031DD12B83120A
:1007A000A12CA402031CDB2B7F30A407031CDA2B33
:1007B0008312A12CE52B8130A4020318E12B8312B4
:1007C000A12C031DE52B8312A12C2408F700F801AE
:1007D000F901FA01A30183126D088316A200A21782
:1007E00083126E088316A10083126F088316A0007F
:1007F0001930A4007308A00203180E2C0130A102C6
:1008000003180E2CA20203180E2CA30203180E2CA0
:10081000A30AA20AA10A7308A007402C7208A10229
:100820000318292C0130A2020318292CA302031853
:10083000292CA30AA20A7208A1077308A007031CA7
:10084000402CA10A031D402CA20A031D402CA30A20
:10085000402C71088038A20203183F2C0130A302FB
:1008600003183F2CA30A71088038A2077208A10759
:10087000031C1D2CA20A031D1D2CA30A1D2C7A1477
:10088000A40B432C4E2C0310A00DA10DA20DA30D03
:100890000310FA0DF90DF80DA50DFA2B251C562C99
:1008A0000310F80CF90CFA0CA50C5A2CF70B5A2C67
:1008B0008312A12CA51B832C0310A00DA10DA20D4A
:1008C000A30D7308A00203186F2C0130A1020318B6
:1008D0006F2CA20203186F2CA302031C942C720825
:1008E000A10203187A2C0130A20203187A2CA30269
:1008F000031C942C71088038A2020318832C013049
:10090000A302031C942CFA0A031D942CF90A031D5C
:10091000942CF80A031D942CF70A031D912C8312C2
:10092000A12CF80CF90CFA0C83126D088316A400A4
:100930007108A406A41F9E2CF817A62CF813A62C49
:100940008312F701F801F901FA0183167A0883127C
:10095000E6007908E5007808E4007708E30008007D
:100960000B08EB008B13831603178C170C14000075
:10097000000083120313EB1B8B170318E72C0317DC
:100980000C087F390313EB0003170D080313EC0069
:1009900003170F080313ED006B08FB00C3216C085D
:1009A00003178D0003136D0803178F0003130B0843
:1009B000EE008B13831603178C170C140000000035
:1009C00083120313EE1B8B17EA0BE72C062D03177C
:1009D0000C0D0E0D7F390313EB0003170D080313E5
:1009E000EC0003170F080313ED006B08FB00C32195
:1009F0006C0803178D0003136D0803178F008D0A11
:100A000003198F0A03100313EA0BB02C0800831894
:100A10000C2DA43084008313F701F801F901FA01C9
:100A20008316A401A501A601A7012308220421041D
:100A3000200403194B2D2030A8000310FB0DFC0DE2
:100A4000FD0DFE0DA40DA50DA60DA70D2308270273
:100A5000031D342D22082602031D342D21082502F2
:100A6000031D342D20082402031C452D2008A40258
:100A70002108031C210FA5022208031C220FA60235
:100A80002308031C230FA7020314F70DF80DF90D1B
:100A9000FA0DA80B1D2D24088000840A250880006B
:100AA000840A26088000840A270880008312080030
:100AB0000408EF006E08F1000319792D6D08FE009F
:100AC0006C08FD006B08FC006A08FB008316A3019C
:100AD000A2012030A1008230A0008312F2227A0805
:100AE000ED007908EC007808EB007708EA00F10BDC
:100AF0005E2D6D08FE006C08FD006B08FC006A08A6
:100B0000FB007B08B63CFB00FA017C088316A000C2
:100B1000FC170310FC0CFD0CFE0CFA0CF90CF80C85
:100B2000F70CFB0B892DA01FA02DF709F809F90977
:100B3000FA09F70A0319F80A0319F90A0319FA0A54
:100B40007A088312ED007908EC007808EB0077084A
:100B5000EA00ED1FB82DEF03EF16EA09EB09EC09E7
:100B6000ED09EA0A0319EB0A0319EC0A0319ED0A65
:100B70003B30F6009A30F500CA30F400F3010A3039
:100B8000F1006E080319EF0A83146A30840083139E
:100B90006D08FE006C08FD006B08FC006A08FB0095
:100BA00076088316A3007508A2007408A1007308D4
:100BB000A000831207257808F708031DF22D6E0A9E
:100BC00071020319F22D6F080319F42D0F39710208
:100BD0000319EC2D0318242EEF1B242E6F1BF42D6C
:100BE0002030202E2030EF05EF1E022EEF126E086F
:100BF000031DEF037708EF002D30FB00C3216F08C2
:100C0000F700EF016E087102031D102E7708EF0048
:100C10002E30FB00C3216F08F7002030EF050030B5
:100C20003030EF1E202EEF126E08031DEF03770801
:100C3000EF002D30FB00C3216F08F700EF013030CB
:100C4000F7077708FB00C32183107608FE007508BC
:100C5000FD007408FC007308FB008316A301A201C9
:100C6000A1010A30A000831207257A08F60079084E
:100C7000F5007808F4007708F300F10BC42D0800A4
:100C80000830F800063892009B30831692008312D9
:100C9000E710670883168700831287100C309D00C9
:100CA0004B30FC00D220F0309D050030F80092005F
:100CB000013083169200831208003330EB00EA0003
:100CC000E9007F30E8006608EF006508EE00640880
:100CD000ED006308EC006908F0006D08F006F01FF5
:100CE000762E03110310E91B0314A92E6908F000E6
:100CF0006C08F1006808F1020319842EF01FA92E78
:100D00000308013A8300A92E6D08F1006908F10279
:100D10000319902EF01FA92E0308013A8300A92E73
:100D20006E08F1006A08F10203199C2EF01FA92E2B
:100D30000308013A8300A92E6F08F1006B08F10245
:100D40000319A82EF01FA92E0308013A8300A92E2B
:100D50000310031CDA2E0130FC00FD00AF217F30B0
:100D600003178D0000308F000313F521782388309E
:100D700003178D0000308F00031007300313EA00C3
:100D8000B024893084006608ED006508EC00640832
:100D9000EB006308EA000130EE0058258E3003179F
:100DA0008D0000308F00031007300313EA00B024D9
:100DB00040265D2E0800A01020150130FC00FD002B
:100DC000AF21923003178D0000308F000313F521FF
:100DD0009B3003178D0000308F0003100730031382
:100DE000EA00B024893084006608ED006508EC0054
:100DF0006408EB006308EA000130EE005825A130DA
:100E000003178D0000308F00031007300313EA0032
:100E1000B0245D268A150A12142A831685148312BB
:100E20008518412F83168514831285181B2F963041
:100E3000FC00D220122F0130FC00FD00AF21A530B4
:100E400003178D0000308F000313F521F030970554
:100E50000030F80092000130831692008312402681
:100E60006430FC00D22040266430FC00D2204026B2
:100E70000830E800FA30FC00D220E80B3A2F8A0153
:100E800000288316051583120519522F40260430B9
:100E9000A0068316051583120519522F9630FC0003
:100EA000D220492F08007108F801700203185B2F47
:100EB0007008F700672FF7010830F200F00DF70D0A
:100EC000710877020318F700F80DF20B5E2F080087
:100ED00020306B1E3030EC006A08F700EA1F782FD4
:100EE000F709F70A7708EA002D30EC00EB176B14CE
:100EF0006A08F0006430F10053277708EA003030C8
:100F00007807ED006A08F0000A30F100532730300E
:100F10007707EF0030307807EE006C08F7003030CC
:100F20006D020319972FEB14EB1B6B15AB2F6B198D
:100F3000AB2F6C08ED00EB18A22F30306E020319B6
:100F4000A52F6B14EB1BEB14AB2F031D6B14031DB0
:100F5000AB2F6D08EE006B19B22FEB18B52F6B1885
:100F6000B82FBB2F6C08FB00C3216D08FB00C32109
:0E0F70006E08FB00C3216F08FB00C3210800C0
:101000003C30A100A10803191A293C30A200A20813
:10101000031918290130FC00FD008A11AF218A153F
:10102000201C1B28AE3003178D0000308F008A1162
:101030000313F5218A1520184E28201D3A28B730B1
:1010400003178D0000308F008A110313F5218A15D4
:101050000030F8000438920020308316920080306F
:1010600083129500671167088316870083120711A2
:101070000C30970020194E28C03003178D00003027
:101080008F008A110313F5218A15F030970500307F
:10109000F80092000130831692008312A301230806
:1010A000093C031CB1288A110D278A158A1178235F
:1010B0008A158A115D268A1524302107840083133E
:1010C0000008E80024302207840083130008E900A8
:1010D000673003178D0000308F00031005300313B5
:1010E000EA008A11B0248A156808EA000130EB0092
:1010F0008A1168278A153A30FB008A11C3218A15A4
:101100006908EA000130EB008A1168278A1520304F
:10111000FB008A11C3218A152030FB008A11C321EC
:101120008A152030FB008A11C3218A15893084007A
:101130006608ED006508EC006408EB006308EA004F
:101140000130EE008A1158258A154130FB008A11C2
:10115000C3218A151530FC008A11D2208A15A30AF2
:101160004F28A3012308093C031C14298A110D27C9
:101170008A158A1178238A158A115D268A152430EA
:101180002107840083130008E8002430220784002C
:1011900083130008E900733003178D0000308F00BF
:1011A000031005300313EA008A11B0248A15680879
:1011B000EA000130EB008A1168278A152030FB0015
:1011C0008A11C3218A156908EA000130EB008A11EF
:1011D00068278A152030FB008A11C3218A15203028
:1011E000FB008A11C3218A152030FB008A11C3211C
:1011F0008A15893084006608ED006508EC006408F3
:10120000EB006308EA000130EE008A1158258A15C8
:101210004130FB008A11C3218A151630FC008A1167
:10122000D2208A15A30AB2280130A006A2030728FB
:10123000A10302280130FC00FD008A11AF218A15AC
:10124000C93003178D0000308F008A110313F52178
:101250008A15F03097050030F800920001308316AF
:1012600092008A11831240268A156430FC008A118C
:10127000D2208A158A1140268A156430FC008A1112
:10128000D2208A158A1140268A150830E800FA30E3
:10129000FC008A11D2208A15E80B47298A01002810
:1012A0008A150A121A2A03081F398300FF30E70043
:1012B00083161F149F141F159F1107309C00831362
:1012C0008312A401A5010130A6000230A70003305B
:1012D000A8000430A9000530AA000630AB00073092
:1012E000AC000830AD000930AE000A30AF000B3062
:1012F000B0000C30B1000D30B2000E30B3000F3032
:10130000B4001030B5001130B6001230B700133001
:10131000B8001430B9001530BA001630BB001730D1
:10132000BC001830BD001930BE001A30BF001B30A1
:10133000C0001C30C1001D30C2001E30C3001F3071
:10134000C4002030C5002130C6002230C700233041
:10135000C8002430C9002530CA002630CB00273011
:10136000CC002830CD002930CE002A30CF002B30E1
:10137000D0002C30D1002D30D2002E30D3002F30B1
:10138000D4003030D5003130D6003230D700333081
:10139000D8003430D9003530DA003630DB00373051
:1013A000DC003830DD003930DE003A30DF003B3021
:1013B000E0008A1162298A15FF308316850000300B
:1013C0008600860183128601831687008312E70058
:1013D000E700831687018312870183161F109F146D
:1013E0001F159F151F1383121F179F1783169F1713
:1013F00083121F14F8001F08C73978049F000130BA
:10140000FC008A11D2208A158A114B2A8A15A01055
:1014100020156710670883168700831207148A1146
:1014200078238A158A11DB2E8A1583168514831278
:08143000851C00280F2A63004F
:02400E00721F1F
:00000001FF
;PIC16F876A
;CRC=0B33  CREATED="21-nov-17 19:01"
